:100000000C9428050C946F050C946F050C946F05E7
:100010000C946F050C946F050C946F050C946F0590
:100020000C946F050C946F050C94BE280C949229C7
:100030000C94311C0C946F050C946F050C946F0597
:100040000C946F050C946F050C946F050C946F0560
:100050000C946F050C94881C0C946F050C946F0520
:100060000C946F050C946F050C946F050C946F0540
:100070000C946F050C946F050C946F050C946F0530
:100080000C946F050C946F050C946F050C946F0520
:100090000C946F050C946F050C946F050C946F0510
:1000A0000C946F050C946F050C946F05415C425CD9
:1000B000435C3E5C3F5C405C3B5C3C5C3D5C44457F
:1000C0004255473A2064697361626C65642E0A0088
:1000D00044454255473A20656E61626C65642E0A5C
:1000E000000A0025303862003A20002530325800DE
:1000F0000A722F632030313233343536370A006DBF
:10010000696469206D6F64756C6174696F6E202518
:10011000640A006D69646920706974636862656E61
:1001200064206368616E6E656C3A256420616D6F52
:10013000756E743A25640A006D696469207069748B
:10014000636862656E64206368616E6E656C3A25F3
:100150006420616D6F756E743A25640A006D696480
:100160006920706974636862656E64206368616E9B
:100170006E656C3A256420616D6F756E743A256406
:100180000A006D69646920706974636862656E64F1
:10019000206368616E6E656C3A256420616D6F75D1
:1001A0006E743A25640A006D696469206D6F647528
:1001B0006C6174696F6E20696E74657276616C2013
:1001C00025640A006D696469206D6F64756C6174E3
:1001D000696F6E20696E74657276616C2025640AA1
:1001E000006D696469206C656761746F2025640A1D
:1001F000006D69646920736F66742025640A006D60
:1002000069646920736F7374656E75746F202564FB
:100210000A006D69646920706F7274616D656E7437
:100220006F2025640A006D696469207375737461B9
:10023000696E2025640A006D69646920616C6C2018
:100240006E6F746573206F66660A006D696469205D
:100250006368616E6E656C2025640A006D6964696F
:10026000206368616E6E656C2025640A006D6964A8
:1002700069206368616E6E656C2025640A006D6993
:1002800064692076656C6F636974792025640A005F
:100290006D6964692076656C6F6369747920256483
:1002A0000A006D6964692076656C6F6369747920F2
:1002B00025640A006D696469207472616E73706FE1
:1002C00073652025640A006D696469207472616E2B
:1002D00073706F73652025640A006D69646920740A
:1002E00072616E73706F73652025640A006D6964B6
:1002F00069206F63746176652025640A006D696406
:1003000069206F63746176652025640A006D6964F5
:1003100069206F63746176652025640A006D6964E5
:1003200069206E6F74656F6666206368616E6E65C6
:100330006C3A2564206E6F74653A25642076656C8E
:100340006F636974793A25640A006D696469206E87
:100350006F74656F6E206368616E6E656C3A2564BC
:10036000206E6F74653A25642076656C6F636974DE
:10037000793A25640A000A002530325820006B655E
:1003800079626F6172645F7265706F72743A200097
:100390000A0025303258006B6579626F6172645FC4
:1003A0007365745F6C65643A20003F00433E200033
:1003B0004C25640A0074696D65725F72656164330F
:1003C0003228293A202530346C580A006B6579624E
:1003D0006F6172645F69646C653A2025580A006B2E
:1003E0006579626F6172645F70726F746F636F6C56
:1003F0003A2025580A00686F73745F6B6579626FE5
:100400006172645F6C65647328293A2025580A007C
:100410000A092D20537461747573202D0A00474317
:10042000433A20382E342E30204156522D4C49422A
:10043000433A20322E302E30204156525F415243F3
:10044000483A20617672350A004F5054494F4E5356
:100450003A204C55464120434F4E534F4C45204384
:100460004F4D4D414E4420343039360A00425549F3
:100470004C443A2022302E31302E33342D32312D5F
:10048000673237376437342D6469727479222028D3
:1004900031363A33343A3231204E6F7620313320C0
:1004A00032303230290A005649443A20307832330B
:1004B0004638286576616E636F6F6B2E617564696F
:1004C0006F29205049443A2030783039303128663D
:1004D000726F6E745F6E696E6529205645523A20C0
:1004E000300A000A092D2056657273696F6E202D3F
:1004F0000A000A092D20436F6E736F6C65202D0A68
:100500004553432F713A09717569740A000A092D20
:10051000204D61676963202D0A443A09446562757C
:1005200067204D65737361676520546F67676C65FD
:100530000A583A094D61747269782044656275679A
:10054000204D6F646520546F67676C65202D2053C4
:10055000686F77206B657970726573736573206956
:100560006E206D617472697820677269640A4B3A13
:10057000094B6579626F617264204465627567201A
:10058000546F67676C65202D2053686F77206B650B
:10059000797072657373207265706F72740A4D3A68
:1005A000094465627567204D6F75736520546F67E8
:1005B000676C650A563A0956657273696F6E0A531D
:1005C0003A095374617475730A433A094163746953
:1005D0007661746520436F6E736F6C65204D6F6438
:1005E000650A46312D4631303A095377697463689C
:1005F00020746F204C6179657220302D3920284697
:100600003130203D204C30290A302D393A095377BA
:100610006974636820746F204C6179657220302D95
:10062000390A47524156453A09537769746368203D
:10063000746F204C6179657220302028616C74657C
:10064000726E617465290A423A094A756D702074A8
:100650006F20426F6F746C6F616465720A4553431B
:100660003A094A756D7020746F20426F6F746C6F19
:10067000616465722028616C7465726E61746529AD
:100680000A453A095072696E7420454550524F4DE3
:100690002053657474696E67730A42535041434531
:1006A0003A09436C65617220454550524F4D0A002E
:1006B0000A002575002E6E6B726F3A20000A002525
:1006C00075002E737761705F6261636B736C617329
:1006D000685F6261636B73706163653A20000A0052
:1006E0002575002E737761705F67726176655F654F
:1006F00073633A20000A002575002E6E6F5F6775E0
:10070000693A20000A002575002E737761705F72C8
:10071000616C745F726775693A20000A0025750084
:100720002E737761705F6C616C745F6C6775693A8A
:1007300020000A002575002E737761705F72637464
:100740006C5F726775693A20000A002575002E7388
:100750007761705F6C63746C5F6C6775693A2000D9
:100760000A002575002E636170736C6F636B5F7494
:100770006F5F636F6E74726F6C3A20000A002575AC
:10078000002E737761705F636F6E74726F6C5F635E
:100790006170736C6F636B3A20000A002530325829
:1007A000006B65796D61705F636F6E6669672E724D
:1007B00061773A20000A002575002E6D6F7573650C
:1007C0003A20000A002575002E6B6579626F617210
:1007D000643A20000A002575002E6D6174726978F4
:1007E0003A20000A002575002E656E61626C653A3C
:1007F00020000A00253032580064656275675F6327
:100800006F6E6669672E7261773A20000A0025755F
:100810000064656661756C745F6C617965723A201D
:10082000003F000A6D6F7573653A206F66660A00B7
:100830000A6D6F7573653A206F6E0A000A6B6579F1
:10084000626F6172643A206F66660A000A6B6579AE
:10085000626F6172643A206F6E0A000A6D61747291
:1008600069783A206F66660A000A6D617472697869
:100870003A206F6E0A000A64656275673A206F66F7
:10088000660A000A64656275673A206F6E0A000A9C
:100890000A4A756D70696E6720746F20626F6F749D
:1008A0006C6F616465722E2E2E2000433E20004343
:1008B0006C656172696E6720454550524F4D0A0064
:1008C0006565636F6E6669673A0A005B735D004B2E
:1008D0006579626F6172642073746172742E0A00AC
:1008E0005B575D005B535D005B525D005B445D00E8
:1008F0005B435D00040330000000160366007200D5
:100900006F006E0074005F006E0069006E0065008D
:1009100000001E036500760061006E0063006F003A
:100920006F006B002E0061007500640069006F00AD
:100930000000040309040902A600040100A0FA094A
:1009400004000001030101000921110100012240FE
:10095000000705810308000A0904010002030000E2
:100960000009211101000122220007058203200055
:100970000107050203200001080B0202010100002B
:10098000090402000001010000092401000109001E
:100990000103090403000201030000072401000110
:1009A000410006240201010006240202020009247B
:1009B00003010301020100092403020401010100F3
:1009C0000905040240000500000525010101090593
:1009D00083024000050000052501010312011001FA
:1009E00000000008F823010900000102030106319C
:1009F000FF0974A1010975150026FF0095207508EF
:100A000081020976150026FF00952075089102C025
:100A100005010906A101050719E029E715002501CF
:100A20009508750181029501750881010507190076
:100A300029FF150026FF0095067508810005081995
:100A4000012905950575019102950175039101C074
:100A500011241FBECFEFDAE0DEBFCDBF04B603FE28
:100A600027C08091030390910403A0910503B091E6
:100A700006038730904BA740B04BD1F4109203038C
:100A800010920403109205031092060314BE84B75B
:100A9000877F84BF0FB6F894A89580916000886125
:100AA00080936000109260000FBEE0E0F8E30995CB
:100AB00011E0A0E0B1E0E2EDF7E502C005900D9293
:100AC000A233B107D9F723E0A2E3B1E001C01D9240
:100AD000A330B207E1F70E948F250C94BF2B0C9432
:100AE0000000FF93EF93E0913201F09133013097D2
:100AF00009F00995EF91FF910895FC0185918030EF
:100B000011F0EFDFFBCF0895FF27E0E230E247FF6F
:100B10000CC0419597FF09C0EDE2609570958095F6
:100B20009095611D711D811D911D27FF02C02195AA
:100B300030E350E2AA27660F771F881F991FAA1F6C
:100B4000A41710F0A41B63955A95A9F7AA3008F0D2
:100B5000A95FA05DAF93F3956115710581059105BE
:100B600041F7ED3211F4EF93F395F21718F43F9338
:100B7000F395FBCF8F91B5DFFA95E1F70895E991F1
:100B8000F9918591803021F0853219F0AADFF9CFF3
:100B9000089520E0E89455915532C1F3503311F493
:100BA000689455915A3348F4505390F3220F022E13
:100BB000220F220F200D250FF4CF0EF421958991DD
:100BC0009991533619F3533729F1533559F1BC0133
:100BD00088279927E8945C3621F489919991689443
:100BE0005591543639F446EF7EF077FF0DC08FEF04
:100BF0009FEF0AC055374AE039F0583540E121F0FF
:100C0000523642E009F00895FF93EF937DDFEF91B4
:100C1000FF91B7CFFF93EF93FC0181918030B9F33F
:100C200060DFFBCFFF93EF9368DFF1CFDF93CF93CC
:100C3000CDB7DEB72596A3DFCF91DF91089581E090
:100C4000089581E008950C94210608950C942506DA
:100C50001F93CF93DF9300D000D00F92CDB7DEB7B4
:100C600049835A836B833091910189819A81311133
:100C70001DC06623B9F02223A9F00E948519182F00
:100C8000682F89819A810E94301969817A81812F28
:100C90000F900F900F900F900F90DF91CF911F91B9
:100CA0000C94F4060E945D19182FEFCF0E9485194D
:100CB00069817A81EDCFFC01262F408151816281CB
:100CC000738184810C942806CF93DF93EC0160E05C
:100CD0000E945B06BE01DF91CF910C9426060E9414
:100CE000E61A811102C00E94831B0C94DE080C944A
:100CF000E10808950C94790681E008950C947C062F
:100D0000CF93C82F0E947A068C2FCF910C947E0629
:100D100008950E9497140E9488062FEF84E39CE0B8
:100D2000215080409040E1F700C000000C94AC1CC2
:100D30000F931F93CF93DF93EC0161E00E945B065A
:100D40008C01BE010E942306882341F1BE01C80127
:100D50000E942A0A882311F1BE01C8010E94A50E33
:100D60008823E1F0BE01C8010E94F70E8823B1F08C
:100D7000BE01C8010E941A10882381F08A8188234D
:100D800041F101308CE5180779F00E3D8CE518072C
:100D9000E9F001151C45E9F40E94890680E0DF9125
:100DA000CF911F910F9108959091E901892F8E7F26
:100DB00090FF81608093E90180FF05C080ED90E0A5
:100DC0000E947D05EBCF8EEB90E0FACF0E94831B53
:100DD000E5CFCE01DF91CF911F910F910C941F06AB
:100DE00090E080E008950895972F70E023E0929FAF
:100DF000600D711D1124FB0199E0899FE00DF11D2B
:100E00001124EE0FFF1FE455FF4F85919491089533
:100E1000FC01EE0FFF1FEF51FF4F85919491089554
:100E2000CF93DF930E94F4060E940308EC01811522
:100E300021E59207D0F5811530E5930708F096C0BB
:100E400081159042F8F4C11581E0D807B8F4C03E8E
:100E5000D10588F4C03CD10508F07BC0C130D10574
:100E600069F0209759F0CE010497813A910530F04E
:100E7000D0E0C0E003C0C83ED105D0F7CE01DF917D
:100E8000CF910895C11590E4D90708F06CC0CE0148
:100E90009F70C11520E3D20708F45EC0CE019927E8
:100EA000D3FF5EC0EC01D86CE9CF811535E593071F
:100EB00000F5811544E5940708F08DC0C11583E560
:100EC000D80708F074C0C11592E5D90708F46AC0C4
:100ED000CE018370992721E030E002C0220F331F3A
:100EE0008A95E2F7C695C69580E2C89FE001112475
:100EF00055C0811529E59207A0F4811538E59307BF
:100F000008F06EC0811546E5940708F0B1CF0E9445
:100F10009A08C82FD0E0DC2FCC27CC27DF71D06215
:100F2000ADCFC1158AE5D80708F45FC0CE01905651
:100F30008115904208F09CCF8D2F8F710E949A08E6
:100F400090E0982F882788279F719C012C2BE9011E
:100F5000E6CFCE01805C91090E940807EC018ECF9C
:100F6000EC01D06C8BCFDF70D06A88CFE4E096952F
:100F70008795EA95E1F783702C2F269526952370A7
:100F800040E2249F90011124382B8C2F8370C1E004
:100F9000D0E002C0CC0FDD1F8A95E2F7C22BD32B25
:100FA000DC686CCFDC2FCC27C16FD06A67CFCE0155
:100FB0008370992721E030E002C0220F331F8A9509
:100FC000E2F7C695C69590E2C99FE0011124C22BB5
:100FD000D32BDA6853CFD82FCC27C46FD06A4ECF2B
:100FE000D82FCC27C06FD06A49CF8C2F8F700E942A
:100FF0009A0834E0D695C7953A95E1F7CF709C2FC3
:10100000EC01D0693BCF82389105B1F1B0F4813366
:10101000910509F475C048F48932910509F469C055
:101020008A32910509F473C008958533910509F456
:1010300059C08933910501F10895833E9105A9F1C5
:1010400038F4803E9105F9F0823E910549F108950A
:10105000863E9105A9F1873E9105C9F1843E91052F
:1010600019F52091080221FF1FC08091070284FD1D
:1010700014C087EE90E00895209107022370A1F03C
:1010800080EE90E008952091070220FD47C0309146
:10109000080230FF09C024FF44C090E080E004C093
:1010A0002091070222FDF7CF08952091070222FD2B
:1010B0003BC03091080230FDE3CF24FFF5CFEDCFE8
:1010C0002091070223FFF0CF24FDE7CFD2CF20915C
:1010D000070223FD2CC03091080231FFEECF84EED1
:1010E00090E008952091070225FFDECF89E290E08D
:1010F00008952091070225FFD7CF85E390E008955A
:101100002091070226FFD0CF8AE290E00895209137
:10111000070226FFC9CF81E390E0089589E390E0BC
:10112000089583EE90E0089582EE90E0089586EEB3
:1011300090E008959091070292FF06C0282F287131
:101140002830F9F4877F846093FF06C0282F287128
:101150002831F1F4877E84612091080220FF06C0C7
:10116000382F38713830D9F4877F816021FF06C06D
:10117000282F28712831D1F4877E816194FD877EE4
:101180000895282F24712430F9F68B7F8860DCCFF6
:10119000282F2471243101F78B7E8861DDCF382F11
:1011A0003171313019F78E7F8860E0CF282F21719F
:1011B000213121F78E7E8861E1CF08950C94DD08FE
:1011C00008950C94E008E82FF0E0E450FE4F808191
:1011D0000895CF92DF92EF92FF920F931F93CF93D8
:1011E000DF9380EF90E00E947D058CEFE82E81E098
:1011F000F82ED0E0C0E09BEEC92E90E0D92E03EE91
:1012000010E0DF93CF93DF92CF920E94160688EE14
:1012100090E00E947D05F70181917F010E94CE1A26
:101220001F928F931F930F930E94160681EE90E0FA
:101230000E947D0521968DB79EB708960FB6F8944B
:101240009EBF0FBE8DBFC330D105D9F6DF91CF91C0
:101250001F910F91FF90EF90DF90CF900895FF9234
:101260000F931F93CF93DF9329E131E062E271E0A6
:10127000C1E0D0E0D90150E040E08D918F3F91F086
:10128000E82FE295EF70F0E0F1A08F708E0101C0C1
:10129000000F8A95EAF7902F90959F2191A382A144
:1012A000802B82A34F5F5F4F4330510531F72D5F95
:1012B0003F4F62177307F1F61092F9011092FC018B
:1012C0001092FA011092FD011092FB011092FE01A2
:1012D00083E00E94C709DF91CF911F910F91FF908A
:1012E0000C946F06EF92FF920F931F93CF93DF93AF
:1012F000E9EFF1E069E171E0C0E001E010E07B01BD
:1013000050E040E030E0D7012D917D012F3FB9F052
:10131000822F82958F7090E0DC0190968C9190E006
:101320002F7002C0959587952A95E2F780FD2BC016
:10133000C801042E01C0880F0A94EAF7382B4F5FCA
:101340005F4F43305105F9F680818317F1F0308308
:1013500081E0C82B31966D5F7F4FB1E062327B0731
:1013600071F62C2F43E06CEF71E089EF91E00E9461
:10137000C8090E9477068C2FDF91CF911F910F91A2
:10138000FF90EF90089580E0D9CF80E0E2CF0895FC
:10139000FF920F931F93CF93DF93F82E092F162FF1
:1013A000D72FC42F222349F081E0809336010E9479
:1013B000611C90933501809334018091360188231C
:1013C000A1F080913401909135010E94791C06971B
:1013D00060F0EF2DF02FA12FBD2FCE0FDF2FD11DED
:1013E000EC17FD0741F410923601DF91CF911F9168
:1013F0000F91FF90089581918D93F2CF84E08093B7
:10140000FF0189E08093000280910102807F886063
:1014100080930102EBE3F1E08FEF819391E0E338F9
:10142000F907D9F710923A01109239011092380158
:101430001092370108959091FF01292F2F709595F3
:101440009595959595959F523CE0239F900D11247D
:10145000890F0895EF92FF920F931F93CF93DF931D
:10146000EB018E3A2CE5920708F0ACC08E393CE5D2
:10147000930708F052C28039ECE59E07B8F583382F
:10148000FCE59F0708F0D0C181382CE5920760F495
:1014900087373CE5930708F090C18F32ECE59E0753
:1014A00008F01EC1C1E081C18138FCE59F0709F445
:1014B000A2C182389C45B1F78A81882309F428C1EA
:1014C0009091FF01892F8F70893008F021C18F5FC3
:1014D0008F70907F982B9093FF019091E90190FF7E
:1014E00017C11F928F938DEE92E07CC18C393CE541
:1014F000930708F048C08239ECE59E0708F0DEC18A
:101500008039FCE59F0709F4B0C181399C4551F64B
:101510008A81882309F4FCC02091FF01822F8595E0
:1015200085958595859586300CF0F2C091E0980FF1
:101530009295907F9595959595959595392F32959E
:10154000307F2F70232B2093FF0118164CF497FF48
:1015500007C08295807F922F9F70892B8093FF0117
:101560008091E90180FFD4C08091FF018595859528
:1015700085958595282F082E000C330B3F938F936C
:1015800084EB92E02FC18C393CE5930709F4ACC1A0
:101590008D399C4509F086CF8A81882309F4B8C02B
:1015A0008091000291E0980F9F70807F892B80933B
:1015B00000028091E90180FFABC01F929F938EE7EC
:1015C00092E010C1843BFCE59F0709F419C208F0C2
:1015D00047C0803B3CE5930709F4D1C120F58E3A22
:1015E000FCE59F0709F4B0C18F3A9C4509F05ACF3A
:1015F0008A81882309F48CC090910002892F8295FA
:101600008F708F5F8F70282F2295207F9F70922B75
:10161000909300029091E90190FF7AC01F928F93FE
:101620008BE492E0DFC0609100022A81823B3CE5BE
:10163000930709F4D2C108F4BDC121112FE76295C7
:101640006F7042E489E092E00E94D11F8091E9012D
:1016500080FF5EC08A811F928F938FEF91E0C2C09E
:10166000873BFCE59F0709F4FBC180F4853B3CE523
:10167000930709F4DCC1863B9C4509F013CF8A81AE
:101680008111ECC18FEF8093390142C0893BFCE5A9
:101690009F0709F420C208F405C28A3B9C4509F063
:1016A00001CFCA816091000262956F70CC2309F46A
:1016B00058C24FEF5FE189E092E00E9401208091E3
:1016C000E90180FF25C08FE18F938FEF8F93809189
:1016D000000282958F701F928F9388E391E017C26A
:1016E00030910002E32EE2942FE0E2223F702CE0E2
:1016F000F22E329FF00C1124CA8101ED080F10E088
:10170000055C1E4FF801D081CC2351F1DF3F11F071
:10171000C0E04BC00E941B0AC82F2F2D482F6E2DF2
:1017200089E092E00E94E11F8091E90180FF15C0ED
:101730001F92FF921F92CF931F92EF928AE493E041
:101740009F938F930E9416062DB73EB7285F3F4F99
:101750000FB6F8943EBF0FBE2DBFF801C083D8CF9F
:10176000DF3F01F12F2D4D2F6E2D89E092E00E9479
:10177000F11F8091E90180FF15C01F92FF921F9217
:10178000DF931F92EF928DE193E09F938F930E94DE
:1017900016062DB73EB7285F3F4F0FB6F8943EBFF1
:1017A0000FBE2DBF8FEFF80180838C2FDF91CF917B
:1017B0001F910F91FF90EF9008952A81222309F441
:1017C000A7CF8757282F2F709091FF01907F922BE2
:1017D0009093FF019091E90190FF9ACF1F928F9310
:1017E0008DE093E09F938F930E9416060F900F90C9
:1017F0000F900F908DCF8A81882309F489CF909123
:10180000FF01892F8F7009F483CF815F8F70907FE4
:10181000982B9093FF019091E90190FF79CF1F924F
:101820008F938DEF92E0DECF2A81222309F470CFCF
:1018300089588295807F8595859585958595282FF2
:101840002295207F9091FF019F70922B9093FF0132
:101850009091E90190FF5CCF282F082E000C330BEC
:101860003F938F938AED92E0BDCF8A81882309F45C
:101870004FCF9091FF01892F859585958595859509
:101880008B3F0CF445CF815F8295807F8595859550
:1018900085958595282F2295207F9F70922B909378
:1018A000FF019091E90190FF33CF282F082E000C03
:1018B000330B3F938F9387EC92E094CF2A812223BE
:1018C00009F426CF8259282F2F7090910002907F23
:1018D000922B909300029091E90190FF19CF1F92F3
:1018E0008F9382EA92E07ECF8A81882309F410CF19
:1018F00090910002892F8F7009F40ACF815F8F7059
:10190000907F982B909300029091E90190FF00CF77
:101910001F928F9380E992E065CF2A81222309F4F8
:10192000F7CE8E59282F2295207F909100029F702C
:10193000922B909300029091E90190FFE9CE1F92C3
:101940008F938DE692E04ECF8A81882309F4E0CE12
:1019500090910002892F82958F70815F8F70282F60
:101960002295207F9F70922B909300029091E90125
:1019700090FFCECE1F928F938CE592E033CF8A8179
:10198000882309F4C5CE6091000262956F7020E053
:101990004BE789E092E00E94D11F8091E90180FF2E
:1019A000B7CE87E392E09F938F930E9416060F9025
:1019B0000F90AECE21112FE762956F7040E489E061
:1019C00092E00E94D11F8091E90180FFA1CE8A811F
:1019D0001F928F9386E292E005CF21112FE7629547
:1019E0006F7041E489E092E00E94D11F8091E9018B
:1019F00080FF8ECE8A811F928F9382E192E0F2CE99
:101A00008A8120E081112FE76091000262956F705A
:101A100043E489E092E00E94D11F8091E90180FFB8
:101A200077CE8A811F928F9381EF91E0DBCE8A81FE
:101A300020E081112FE76091000262956F7043E40E
:101A400089E092E00E94D11F8091E90180FF60CE81
:101A50008A811F928F9381EE91E0C4CE81E013CEF4
:101A60008A81882309F454CE90910102292F2F7086
:101A700081E0820F8F70907F892B80930102982FD5
:101A80009F7021F4807F822B809301028091E90175
:101A900080FF3ECE809101028F701F928F9384EC65
:101AA00091E0A0CE8A81882309F432CE9091010280
:101AB000892F8F7009F42CCE815F8F70907F982BC7
:101AC000909301029091E90190FF22CE1F928F9393
:101AD00087EA91E087CECA816091000262956F70BB
:101AE000CC2301F140E050EE89E092E00E94012019
:101AF0008091E90180FF0CCE80EE8F931F92809140
:101B0000000282958F701F928F9382E891E09F93DD
:101B10008F930E9416060F900F900F900F900F90CA
:101B20000F90F6CD50E040E089E092E00E94012065
:101B30008091E90180FFECCD1F921F9280910002FD
:101B400082958F701F928F938DE591E09F938F9375
:101B50000E9416060F900F900F900F900F900F900D
:101B600024CE50E040E089E092E00E940120809184
:101B7000E90180FFCDCD1F921F92809100028295D6
:101B80008F701F928F9383E191E0E0CF89E092E024
:101B90000E94032280913701909138010E94791CA4
:101BA000209101022F702817190611F008F03FC08C
:101BB0000E94611C90933801809337018091390114
:101BC0008823A9F18091E90180FF0EC080913A013C
:101BD0001F928F938FEF90E09F938F930E94160632
:101BE0000F900F900F900F906091000262956F70B0
:101BF00020913A0141E089E092E00E94D11F80915A
:101C0000390190913A0187FF0DC0482F5527419522
:101C10000CF45095941715062CF410923A0110927A
:101C200039010895890F87FD03C080933A01089513
:101C30008FE7FBCFAF92BF92CF92DF92EF92FF92EE
:101C40000F931F93CF93DF937C015B01C42FD22F9F
:101C5000FC0182818823F9F0409385010E94611C78
:101C6000909384018093830180E28C0F883008F088
:101C700061C0C77081E001C0880FCA95EAF7DF91A3
:101C8000CF911F910F91FF90EF90DF90CF90BF9079
:101C9000AF900C944E1210918501141340C08091A6
:101CA0008301909184010E94791C6C01B701C501E8
:101CB0000E940D17C816D90690F5C0E2CD0F1D176A
:101CC000B9F080E2810F883040F4177081E001C0E4
:101CD000880F1A95EAF70E945512C83048F481E03F
:101CE0009D2F977001C0880F9A95EAF70E944E12B7
:101CF000802F0E943B12C830E8F4D77081E001C009
:101D0000880FDA95EAF7DF91CF911F910F91FF903D
:101D1000EF90DF90CF90BF90AF900C94551280E27F
:101D20008C0F883038F4C77081E001C0880FCA95E5
:101D3000EAF7E9CFDF91CF911F910F91FF90EF90DC
:101D4000DF90CF90BF90AF9008950F939C01CB018F
:101D5000233F4CE5340759F1A8F4283DFCE53F0743
:101D600001F1293D4CE53407D1F1273D3C4591F483
:101D700006E221EE41EE67ED7CE50E941A0E80E05E
:101D80000F910895253FFCE53F07E9F0B0F0263FAD
:101D90003C45F9F0FC018281882339F110928501DC
:101DA000EFCF07E225EE45EE68ED7CE5E6CF06E2F3
:101DB00021EE40EE63EF7CE5E0CF07E225EE44EE56
:101DC00064EF7CE5DACF06E221EE42EE65EF7CE5DA
:101DD000D4CF07E225EE46EE66EF7CE5CECF08E2F3
:101DE00021E045EE69ED7CE5C8CF81E0C9CFCF9316
:101DF000DF93EC01FB018281882309F419C1C23011
:101E0000FCE5DF07C0F1C6319CE5D90730F09E0143
:101E10002A5F3C452930310570F50E94F91A9093EC
:101E2000080280930702C031ECE5DE0709F4CFC059
:101E300008F05BC0C8308CE5D80709F4B6C088F557
:101E4000C430ECE5DE0709F4A8C0C0F4C2308CE56C
:101E5000D80709F49CC0809107028260C330DC453A
:101E600009F498C080910702909108020E94071B14
:101E70000E94971480E0DF91CF910895809107022E
:101E80008061C630ECE5DE0709F484C0809107026A
:101E90008860C730DC4508F47DC08091070280620D
:101EA00079C0CC308CE5D80709F489C070F48091F2
:101EB00007028C60CA30ECE5DE0709F46BC008F459
:101EC00078C0809107028E7F65C0CE308CE5D80740
:101ED00009F479C0809107028B7FCF30DC4508F48C
:101EE00059C0809107028F7E55C0CB3FECE5DE07DD
:101EF00009F457C030F5C3318CE5D80709F46FC039
:101F000078F4C131ECE5DE0709F465C0C231DC4587
:101F100009F0A8CF0E949714809107028F773AC0EA
:101F2000C5318CE5D80709F462C008F476C0809109
:101F300008028160CA3FDC4509F094CF8093080213
:101F400091CFCF3FFCE5DF0709F44DC088F48091C5
:101F500008028D7FCD3F9CE5D90781F3809108026F
:101F60008E7FCE3FDC4550F3809108028360E6CF40
:101F7000C130FDE5DF0709F459C008F444C080E032
:101F8000C230DD4509F06ECF0E94851B6BCF80917A
:101F9000070281608093070265CF80910702846009
:101FA000F9CF809108028260C9CF809107028064D6
:101FB000F1CF0E949714809107028068EBCF809147
:101FC00007028D7FE7CF80910702877FE3CF809163
:101FD00007028F7DDFCF809107028F7BDBCF80915F
:101FE0000702837FD7CF809108028C7FA7CF809193
:101FF000070282FB992790F921E0922790FB82F952
:1020000090FB83F9C7CF80910802982F909591702B
:102010008E7F892B90FB81F991CF0E94971490912C
:102020000702892F97FB87F98058B4CF81E0ACCFA6
:1020300081E021CFCF93DF93EB0186319C4511F5F1
:102040000E941A1A9A81992399F08A7A91E009F4E8
:1020500090E090938601811109C089E20E94F519F0
:102060000E94661A80E0DF91CF91089585E3F6CF54
:1020700080918601811104C089E20E94FC19F0CF91
:1020800085E3FBCF81E0EFCF90938C0180938B01B0
:102090000895E0918B01F0918C01309721F001902F
:1020A000F081E02D099480E00895EF92FF920F9364
:1020B0001F93CF93DF938C01E0918B01F0918C0102
:1020C0003097C1F10280F381E02D09958091E901FB
:1020D00082FF30C080FF04C08EE793E00E947D0540
:1020E000D0E0C0E088E7E82E83E0F82E8091E90197
:1020F00080FF0EC0F801EC0FFD1F80811F928F93AF
:10210000FF92EF920E9416060F900F900F900F9083
:102110002196C830D10551F78091E90180FF0AC0AE
:1021200086E793E0DF91CF911F910F91FF90EF90A1
:102130000C947D05DF91CF911F910F91FF90EF904F
:1021400008952091890130918A012817390771F08B
:1021500090938A0180938901E0918B01F0918C0129
:10216000309721F00680F781E02D099408952091A1
:102170008701309188012817390771F09093880101
:1021800080938701E0918B01F0918C01309721F0D1
:102190000084F185E02D0994089585B7806885BF96
:1021A00085B7806885BF0895089508950C94D4106C
:1021B00008950C94D8100E94CD100E94D5100C9454
:1021C000D61081E008950C94E1100E94581C0E94E2
:1021D0002F090E94BD1C0C94D910CF93C82F809159
:1021E000E90182FF1EC080FF1CC087E993E00E94C6
:1021F0007D058091E90180FF14C01F92CF9382E991
:1022000093E09F938F930E9416068091E9010F90AF
:102210000F900F900F9080FF04C080E993E00E9420
:102220007D058C2FCF910C948006BF92CF92DF92C8
:10223000EF92FF920F931F93CF93DF93CDB7DEB74B
:102240002A970FB6F894DEBF0FBECDBF0E94720969
:102250000E94E310882309F466C03EE8C32E31E0F3
:10226000D32E10E000E0B02E802F0E94E308E82E6D
:10227000F601F1906F01F81609F44FC08091E90161
:1022800081FD0E94E9088F2D8E25F82FF170FF2E19
:1022900080FD3DC081FD3DC082FF3FC082E024E063
:1022A000F22E8E83BF82EF2081E009F480E08887E0
:1022B0000E94611C8160782F9A8789874E815F8197
:1022C00068858A850E94B411F801E257FE4F80812B
:1022D000F826F0820E94C60D0E94491090918D014F
:1022E000891791F10E94491080938D012A960FB6AB
:1022F000F894DEBF0FBECDBFDF91CF911F910F913C
:10230000FF90EF90DF90CF90BF900C94ED1080E0A5
:10231000C8CF81E092E0F92EC4CF0F5F1F4F03308A
:10232000110509F0A0CF8FEF89838A831B820E9459
:10233000611C8160782F9D838C8349815A816B81D8
:102340008D810E94B411C6CF2A960FB6F894DEBFD5
:102350000FBECDBFDF91CF911F910F91FF90EF90F6
:10236000DF90CF90BF900895CF93DF93CDB7DEB7C6
:102370002B970FB6F894DEBF0FBECDBF4F835887A3
:1023800069877A878B871E821D8285E0FE013796DA
:10239000DE01119601900D928A95E1F749815A81EB
:1023A0006B817C818D819E812B960FB6F894DEBF68
:1023B0000FBECDBFDF91CF910C941017FC0180812F
:1023C00091810C94C719CF93C82F882351F18CEFBA
:1023D0008C0F813AC8F48C2F0E94611F811121C09B
:1023E0006C2F80910001909101010E949C1B882319
:1023F00029F08C2F0E94FC190E94661A8C2F0E94D3
:10240000F519CF910C94661A80E28C0F883048F44D
:10241000C77081E001C0880FCA95EAF70E941D1AB3
:10242000F0CFCF910895882329F19CEF980F913A2E
:1024300020F40E94FC190C94661A90E2980F9830D0
:1024400050F4877091E001C0990F8A95EAF7892FBF
:102450000E94231AF0CF9BE5980F933020F490E070
:1024600080E00C94A110885A873120F490E080E03D
:102470000C94B7100895CF93C82F0E94E311C9336D
:1024800049F42FEF87EE93E0215080409040E1F730
:1024900000C000008C2FCF910C941312882321F0E0
:1024A0000E941D1A0C94661A0895882321F00E9438
:1024B000231A0C94661A0895BF92CF92DF92EF927E
:1024C000FF920F931F93CF93DF936C01D62FC72FEB
:1024D000FC01158112951F70028101110E943A1AA8
:1024E0000E94131AE82E882391F00023D1F08C2F3C
:1024F000807F803421F080E28D0F883090F082E080
:102500000E94B11A0E94131A91E0E82EE926BC2E0F
:10251000B2949FE0B922EB2DF0E0EF53F44D0C9410
:10252000772BE12CF4CF1C2F1F70C07F11F0129578
:10253000107F0023A9F0112359F080E28D0F88301D
:1025400010F0D11109C0812F0E941D1A0E94661A35
:102550008D2F0E94E31114C0812F0E942D1AF6CFF7
:102560008D2F0E941312112359F080E28D0F8830B5
:1025700010F0D1112CC0812F0E94231A0E94661ADC
:102580002B2D2850330B2430310520F40E944910A4
:102590000E948006EE2009F477C10E940F1A80FD88
:1025A00073C1F60112820E94091A0E949418C60192
:1025B0000E9465140E94091ADF91CF911F910F911B
:1025C000FF90EF90DF90CF90BF900C94B518812FC3
:1025D0000E94331AD3CFFC2FFF70FF2EC07FC03272
:1025E00019F0F29480EFF822DD2369F0D13049F13F
:1025F000002391F1112351F1F601858180FFA8CFCD
:102600008F70858323C0002381F0111106C00E94C2
:102610004D1A8F290E944E12B3CF1130C1F70E947C
:102620004D1A8F290E94531AABCF111106C00E9478
:102630005C1A8F2D0E945512A3CF113009F4A0CF40
:10264000F6CF002329F0163008F09ACF8F2DE2CF75
:10265000153008F095CFEDCF112359F3D93349F454
:10266000FFEF27EE33E0F15020403040E1F700C0AB
:1026700000008D2F0E94131283CF8C2F837009F0DE
:1026800041C001117DCF4D2F429546954770440FB3
:10269000440F0D2F0F7010E030E020E0042E04C036
:1026A000000F111F221F331F0A94D2F760E070E061
:1026B000CB01D4FF0FC06FE070E080E090E004C079
:1026C000660F771F881F991F4A95D2F760957095FE
:1026D00080959095C695C695C370602B712B822B03
:1026E000932BC23049F058F4C13019F00E944618BB
:1026F00047CF0E94341844CF0E94581841CF0E94FF
:1027000032183ECF8695002311F08C2F81708823DC
:1027100009F436CF4D2F429546954770440F440F2C
:102720000D2F0F7010E030E020E0042E04C0000FE9
:10273000111F221F331F0A94D2F760E070E0CB0113
:10274000D4FF0FC06FE070E080E090E004C0660F3F
:10275000771F881F991F4A95D2F7609570958095CD
:102760009095C695C695C370602B712B822B932BC9
:10277000C23049F058F4C13019F00E940B1900CF53
:102780000E94F918FDCE0E941D19FACE0E946E1803
:10279000F7CECF70002329F08C2F0E9494188D2F34
:1027A00039CF8D2F0E9455128C2F0E94B518E8CE7C
:1027B000D23F89F160F4D03FC9F0D13F29F1002325
:1027C00009F442C01111C4CE8C2F8F7121C0D33FA8
:1027D00039F1D43FA1F7002369F1CF718C2F0E940A
:1027E000941863E08C2F0E949C1ACACE002341F0FB
:1027F000153008F0C5CE8C2F8F710E94D818C0CE2E
:10280000163008F0BDCEF7CF8C2F8F71002369F200
:102810000E949418B5CE8C2F8F710023C9F3C5CFB9
:10282000002329F08C2F8F710E947F18A9CE0E945F
:102830007A18A6CE81E00E94B11A123008F4A0CE18
:1028400082E00E94B11A9CCE112359F0D93309F0CD
:1028500010CF8FEF97EEE3E081509040E040E1F73A
:1028600006CF8C2F8F71A1CF4C2F4F706D2FC601CB
:102870000E94F0060E94AA1783CE4C2F4F706D2F36
:10288000C6010E94F3067CCEDF91CF911F910F917C
:10289000FF90EF90DF90CF90BF9008950F931F931C
:1028A000CF93DF93EC01688179818A810E94D119ED
:1028B0008C010E942F190E943118B801CE01DF91BE
:1028C000CF911F910F910C945C12CF93DF93EC0189
:1028D0008B819C81892B29F08881998189238F3F65
:1028E00059F4DF91CF910895CE010E944E14CE018C
:1028F000DF91CF910C946406CE010E94980681115D
:10290000F3CF0E94131A882361F38A81882349F345
:1029100082E0DF91CF910C94B11A0E943A1A0E9482
:102920004A1A0C94661A0E94031A0C948D140E9481
:102930002A1A0C949314E92FE295EF70E250EE30CE
:1029400070F4F0E0EF52F44D0C94772B803F19F0C7
:1029500020F4883E20F481E00895843FE1F380E094
:102960000895883EC0F3813FD1F7F5CF93FB8827C8
:1029700080F908950E94C7190C949B14CF93DF939C
:1029800000D000D00F92CDB7DEB70F900F900F9010
:102990000F900F90DF91CF910895CF93DF9300D0E8
:1029A00000D000D0CDB7DEB726960FB6F894DEBFC4
:1029B0000FBECDBFDF91CF9108951F93CF93DF93CB
:1029C000C091920116E0809193018C1304C0DF91B5
:1029D000CF911F910895D0E01C9FF0011D9FF00D35
:1029E0001124EC56FE4F40815181628173818481B4
:1029F00095810E94CD142196C770E5CF4091C40106
:102A00005091C5016091C6017091C7018091C801C4
:102A10009091C9010C94CD141F93CF93DF938091B3
:102A2000C901807FA9F48091C601882389F0809133
:102A30009201C09193016091C4017091C501A09170
:102A4000C701B091C801D62FD72316E0C81304C020
:102A5000DF91CF911F91089590E0109711F0DF3F23
:102A600019F401968770F2CF189F9001199F300DCD
:102A70001124F901EC56FE4F41814713F2CF4081FA
:102A80004613EFCF42814111ECCF438154814A1B61
:102A90005B0B483C510528F78091C9018F7080611C
:102AA0008093C901F901E756FE4F80818F708061E4
:102AB000808384EC91E00E946514DF91CF911F9197
:102AC0000C94DD14AF92BF92CF92DF92EF92FF92FF
:102AD0000F931F93CF93DF93CDB7DEB761970FB6F8
:102AE000F894DEBF0FBECDBF8C0185E0F801DE019A
:102AF0001D9601900D928A95E1F7F8014081518170
:102B0000E28084ECC82E81E0D82E6091C7017091DC
:102B1000C8016115710509F461C19091C40120914A
:102B2000C501892F82238F3F09F458C1A380B48047
:102B3000F090C601F501E61BF70BFF2009F4FCC07D
:102B40008091C901382F307FE83CF10508F0B2C010
:102B5000311179C0FE2C251323C0941321C0E1103C
:102B60001FC08F7080618093C9010E94FE14C6014E
:102B70000E9465148091C901F80185838F2D6196AB
:102B80000FB6F894DEBF0FBECDBFDF91CF911F917E
:102B90000F91FF90EF90DF90CF90BF90AF9008958E
:102BA000AB2829F0842F85238F3F09F033C180E0C3
:102BB000F82FF170DF2E80FF3CC0809192012091B0
:102BC000930136E0821315C04D875E878D859E8503
:102BD0000E94C719292F22952F702230F0F024303F
:102BE00018F59F70F1F0F8019581907FD1F4D12C08
:102BF0001EC090E0389FF001399FF00D1124EC5673
:102C0000FE4F6181651306C06081641303C0628159
:102C10006E110FC001968770D5CF9F7011F0882379
:102C200031F3805E883018F3C8010E946514FD2CD2
:102C3000A5CFEE2009F4A2CF8091C90181608093D5
:102C4000C901F12C9BCF251306C0941304C0F801D1
:102C5000EE2009F48DC04D875E878D859E850E948C
:102C6000BA14882319F1EE2009F18091C90180324C
:102C700070F02091C4013091C50138872F831986E7
:102C8000BB86AA868C87CE0107960E94651486E0D3
:102C9000F801A4ECB1E001900D928A95E1F70E9451
:102CA0000C150E94FE14FF24F39468CFC8010E9403
:102CB0006514F9CF311113C07A2DB98AA88A6E2D07
:102CC00089890E94BE1484EC91E00E94651486E01C
:102CD000F60111928A95E9F70E94FE14B2CF2513EE
:102CE0000FC094130DC0E1100BC0F8018583C8011B
:102CF0000E94651486E0F60111928A95E9F73ECFAD
:102D00004D875E878D859E850E94BA14882371F257
:102D1000EE2061F28091C901803208F4B8CF209191
:102D2000C4013091C5013A8329831B82BD82AC82E4
:102D30008E83CE010196A9CFE83CF10508F041C091
:102D4000FE2CEE2009F4B2CF25132AC0941328C01C
:102D50008091C90180FD1BC0982F907FC1F0F801C0
:102D60008583903F31F0982F907F905F8F70892BF3
:102D70008583C8010E94651486E0F801A4ECB1E0E7
:102D800001900D928A95E1F70E94FE14F7CE86E03D
:102D9000F801A4ECB1E001900D928A95E1F7EECE36
:102DA0004D875E878D859E850E94BA1481116FCFF5
:102DB0008091C90181608093C901C8010E94651496
:102DC000DDCE7A2DB98AA88A6E2D89890E94BE141B
:102DD00086E0F60111928A95E9F7D6CFEE2009F444
:102DE00065CF4D875E878D859E850E94BA14F82E2B
:102DF000882309F45BCF86E0F801A4ECB1E00190F0
:102E00000D928A95E1F784EC91E00E94DE110E9418
:102E10000C15BACF81E08E25CBCE88EC90E00895DA
:102E20001F93CF93DF93CDB7DEB72C970FB6F894EF
:102E3000DEBF0FBECDBF4F83588769877A878B87E8
:102E40009C87CE0107960E946215882369F08A85C7
:102E50009B85892B39F04F815885842F85238F3F9F
:102E600009F071C016E05FC086E0FE013796DE0112
:102E7000119601900D928A95E1F78A859B85892BA1
:102E800089F38F81988589238F3F61F32091930186
:102E900030E0C90101968770992740919201481747
:102EA000190671F40E9497141092930110929201E6
:102EB00086E0E4ECF1E0DF011D928A95E9F7D2CFDC
:102EC00096E0929FD001939FB00D1124AC56BE4F57
:102ED000FE01319601900D929A95E1F7809393014E
:102EE0000E94DD14BFCF819FC00111248C569E4FDC
:102EF0000E9462158823E9F0E09192011E9FF00183
:102F00001124EC56FE4F408151816281738184818E
:102F100095810E94CD148091920190E00196877076
:102F20009927809392018091920190919301891346
:102F3000DACF2C960FB6F894DEBF0FBECDBFDF916F
:102F4000CF911F91089569857A858B859C850E9414
:102F5000CD1488CFEF92FF920F931F93CF93DF93FF
:102F60008C01892B81F0F12CEE24E394E801219669
:102F7000F8018491843770F4843008F05FC08130A8
:102F8000B1F08230A1F1DF91CF911F910F91FF90AD
:102F9000EF900895853709F44CC008F43DC09CE7D4
:102FA000980F903780F78F770E94131249C00E5FF9
:102FB0001F4FFE01849190E2980F983060F4877063
:102FC000FE2D01C0FF0F8A95EAF78F2F0E943D1A50
:102FD0000E94661A02C00E94E3118F2D815030F2C8
:102FE000EFE9FFE03197F1F700C00000F7CF0E5F87
:102FF0001F4FFE01849190E2980F983050F4877033
:10300000FE2D01C0FF0F8A95EAF78F2F0E94431A09
:10301000DFCF0E941312E1CF0E5F1F4FFE01C4915C
:10302000C150D8F28FE99FE00197F1F700C000008E
:10303000F7CF0E5F1F4FFE01F490CFCF0E94E31138
:103040008E01CBCF08950C9422180E942318609310
:10305000D8017093D9018093DA019093DB010C942D
:103060008D1408950C9425180F931F930091D80187
:103070001091D9012091DA013091DB01602B712B85
:10308000822B932B1F910F910C9425180F931F9354
:103090000091D8011091D9012091DA013091DB0122
:1030A00060237123822393231F910F910C94251881
:1030B0000F931F930091D8011091D9012091DA014B
:1030C0003091DB0160277127822793271F910F9191
:1030D0000C9425180C9422180C946A180E946C18F1
:1030E0006093D4017093D5018093D6019093D7015A
:1030F0000C948D1460E070E0CB010C946E180F936B
:103100001F9341E050E060E070E08A019B0104C041
:10311000000F111F221F331F8A95D2F7C901B80172
:103120001F910F910C946E180F931F9341E050E084
:1031300060E070E004C0440F551F661F771F8A953A
:10314000D2F78091D4019091D501A091D601B09190
:10315000D7018A019B01082B192B2A2B3B2BC90174
:10316000B8011F910F910C946E180F931F9341E0BB
:1031700050E060E070E004C0440F551F661F771FE9
:103180008A95D2F7CB01BA0160957095809590959C
:103190000091D4011091D5012091D6013091D70131
:1031A00060237123822393231F910F910C946E1837
:1031B0000F931F9341E050E060E070E004C0440FC3
:1031C000551F661F771F8A95D2F78091D401909181
:1031D000D501A091D601B091D7018A019B010827A2
:1031E00019272A273B27C901B8011F910F910C9479
:1031F0006E180F931F930091D4011091D501209167
:10320000D6013091D701602B712B822B932B1F910C
:103210000F910C946E180F931F930091D40110918D
:10322000D5012091D6013091D701602371238223EB
:1032300093231F910F910C946E180F931F9300917D
:10324000D4011091D5012091D6013091D70160278A
:103250007127822793271F910F910C946E18089560
:10326000E92FEE0F9E0F890F982F977041E001C054
:10327000440F9A95EAF786958695869595E0899FFD
:10328000F0011124E653FE4F30E020E070E0519150
:10329000DF011197CB01022E02C0969587950A9403
:1032A000E2F7817081958527842385278C932F5F92
:1032B0003F4F2530310559F70895E92FEE0F9E0F46
:1032C000890F982F977086958695869525E0829F21
:1032D000F0011124E653FE4F50E040E080E02191E0
:1032E00030E0092E02C0369527950A94E2F7217046
:1032F0003327042E01C0220F0A94EAF7822B4F5F76
:103300005F4F4530510559F70895BF92CF92DF9234
:10331000EF92FF920F931F93CF93DF938C01C09096
:10332000D401D090D501E090D601F090D7018091E2
:10333000D8019091D901A091DA01B091DB01C82A9E
:10334000D92AEA2AFB2ACFE1D0E0BC2ED701C60158
:103350000C2E04C0B695A795979587950A94D2F739
:1033600080FD0EC0219788F7B12C8B2DDF91CF9176
:103370001F910F91FF90EF90DF90CF90BF90089535
:10338000B8018C2F0E941007019761F3EECFCF9305
:10339000DF93EC010E948519BE01DF91CF910C945F
:1033A00010071F93CF93DF93EB0190919101992325
:1033B00031F0CB01DF91CF911F910C94C719882375
:1033C00079F0CB010E948519182F682FCE010E9439
:1033D0003019BE01812FDF91CF911F910C941007FE
:1033E000CB010E945D19182FF4CF682F8091000146
:1033F000909101010C94D21B682F80910001909153
:1034000001010C94D41B80910001909101010C9456
:10341000D61B8091DC0185958595859508958091D1
:10342000DC01877008959091DC01977081E009F4C8
:1034300080E008958091E80108959091E801892B3A
:103440008093E801089580959091E80198239093E6
:10345000E80108951092E80108959091E701892B01
:103460008093E701089580959091E70198239093C8
:10347000E70108951092E70108959091E601892BE4
:103480008093E601089580959091E60198239093AA
:10349000E60108951092E60108958091DD010895F6
:1034A00008950C94501A9091DD01981721F08093A3
:1034B000DD010C94511A08958091DD01882329F0D3
:1034C0001092DD0180E00C94511A0895E091000102
:1034D000F09101018091E8018083E0910001F09179
:1034E000010180819091E701892B8083E0910001A7
:1034F000F091010180819091E601892B8083909168
:10350000DD01992381F0E0910001F09101018081BA
:10351000892B808380910001909101010E948A1B78
:1035200081110E945C1A80910001909101010C941C
:10353000551008950C94991A98E0899F90011124D0
:10354000622B6093DC010E9494188091DC018595C8
:10355000859585950C949A1A1092DC0180E00C9464
:103560009A1A9091DC01809589238093DC01282FA1
:10357000277071F4282F082E000C330B92171306B6
:1035800039F08595859585950E94B5180C94AC1AEF
:10359000089590933301809332010895829590E0CD
:1035A0009C01220F331F220F331F2C7C959587958A
:1035B000959587958373282B30E0C901880F991F53
:1035C0008A7A359527952575822B089590E080E0BD
:1035D0000E94852B21E08C3E9E4F09F020E0822F37
:1035E000089582E090E00C947D2B83E090E00C94B1
:1035F0007D2BCF9384E090E00E947D2BC82F81E249
:1036000090E00E947D2B982F8C2FCF910895CF931F
:10361000C92F682F84E090E00E948B2B6C2F81E2F1
:1036200090E0CF910C948B2BAB01BC018FE090E02C
:103630000C949D2BAB01BC0183E190E00C949D2B7D
:1036400060E070E0CB010C941A1B60E070E0CB01ED
:103650000E94141B0C94201B6CEE7EEF90E080E027
:103660000E94A92B60E082E090E00E948B2B60E03A
:1036700083E090E00E948B2B1092D8011092D90128
:103680001092DA011092DB0160E084E090E00E9489
:103690008B2B60E081E290E00E948B2B60E085E064
:1036A00090E00E948B2B60E086E090E00E948B2BE4
:1036B0006FEF87E090E00E948B2B40E050E0BA0172
:1036C00088E090E00E949D2B60E08DE090E00E94F9
:1036D0008B2B40E050E0BA0188E190E00E949D2BE6
:1036E00060E087E190E00E948B2B40E050E0BA015F
:1036F0008CE190E00E949D2B60E080E290E00E94CF
:103700008B2B0C94251B0C942C1B682F8EE090E0C7
:103710000C948B2B9C012E5F3F4FAC01485F5F4F99
:1037200080E02417350709F40895F90191919F016C
:103730009923B9F38F5FF5CF662349F0FC013296E8
:1037400008962191261729F0E817F907D1F780E0AC
:10375000089581E008959C01FC0132969FEF80E07E
:103760004191461751F09F3F19F4411101C0982F24
:103770008F5F8630A9F79F3F09F40895290F311D07
:1037800097FD3A95F90162830895FC0132960896F7
:103790002191261303C0DF0111971C92E817F90746
:1037A000B9F708950C94AB1B0C94C51B029626E048
:1037B000FC0111922A95E9F70895089508950C9453
:1037C000DE1B0E94DF1B8091FA02843049F11092C7
:1037D000EA0188E190E020E40FB6F894A895809380
:1037E00060000FBE2093600080E00E9480060E946F
:1037F000DF1B83B7817F846083BF83B7816083BF12
:103800007894889583B78E7F83BF0FB6F894A89578
:1038100080916000886180936000109260000FBE0C
:1038200008950895CF930E94DD1B0E9472090E94A3
:10383000111CC0E08C2F0E94E308811105C0CF5FEE
:10384000C330C1F7CF91089581E0FCCF08950C9467
:10385000261C0E9497140E9449100E9480060C9416
:10386000271C1F921FB61F9211248F939F93AF9313
:10387000BF938091EA01811113C08091030290915E
:103880000402A0910502B09106024196A11DB11D4E
:103890008093030290930402A0930502B093060262
:1038A000BF91AF919F918F911F901FBE1F90189550
:1038B00082E084BD93E095BD9AEF97BD80936E0042
:1038C00008952FB7F8948091030290910402A0917B
:1038D0000502B09106022FBF08952FB7F8946091AA
:1038E00003027091040280910502909106022FBF9D
:1038F00008959C014FB7F8948091030290910402BF
:10390000A0910502B09106024FBF821B930B089550
:1039100078941F921FB61F9211248F939F93AF9399
:10392000BF938091030290910402A0910502B0918F
:1039300006020196A11DB11D80930302909304021B
:10394000A0930502B0930602BF91AF919F918F9112
:103950001F901FBE1F90189587E797E79093010867
:103960008093000888E19AE00FB6F894A8958093B8
:1039700060000FBE90936000FFCF0E94E61A811195
:1039800002C00E94831B0E94F11A8093E9010E94E9
:10399000F91A90930802809307020E94F51A682F83
:1039A00070E090E080E00E9432186091D401709144
:1039B000D5018091D6019091D7010C946C18CF93CA
:1039C000C82F1F928F9380EB93E09F938F930E9459
:1039D000160661E070E080E090E004C0660F771F9B
:1039E000881F991FCA95D2F70E9432180F900F9026
:1039F0000F900F90CF910C949714CF93DF938B314E
:103A000009F4FAC108F09CC18B3009F4B8C108F080
:103A10006AC1863009F4C6C148F4853009F49EC1F4
:103A200081E298E00E947D0580E0CCC1873009F4F6
:103A3000CCC18830A9F780EC98E00E947D0581E137
:103A400098E00E947D050E94F51A1F928F938EE0E8
:103A500098E09F938F930E9416068CE098E00E9456
:103A60007D050E94F11AC82F89EF97E00E947D051D
:103A70001F92CF9384EF97E09F938F930E94160637
:103A800082EF97E00E947D0588EE97E00E947D0519
:103A90008C2F81701F928F9385EE97E09F938F9369
:103AA0000E94160683EE97E00E947D0589ED97E05F
:103AB0000E947D05C1FB882780F91F928F9386EDB8
:103AC00097E09F938F930E94160684ED97E00E94E3
:103AD0007D0588EC97E00E947D05C2FB882780F970
:103AE0001F928F9385EC97E09F938F930E94160609
:103AF00083EC97E00E947D058AEB97E00E947D05AC
:103B0000C3FBCC27C0F91F92CF9387EB97E09F931D
:103B10008F930E94160685EB97E00E947D050E9418
:103B2000F91AEC0181EA97E00E947D05DF93CF93BB
:103B30008CE997E09F938F930E9416068AE997E09D
:103B40000E947D0581E897E00E947D058C2F8170A1
:103B50001F928F938EE797E09F938F930E94160694
:103B60008DB79EB780960FB6F8949EBF0FBE8DBFDF
:103B70008CE797E00E947D0585E697E00E947D0531
:103B8000C1FB882780F91F928F9382E697E09F936D
:103B90008F930E94160680E697E00E947D058EE4D2
:103BA00097E00E947D058D2F81701F928F938BE48B
:103BB00097E09F938F930E94160689E497E00E94F6
:103BC0007D0587E397E00E947D05D695D1701F9211
:103BD000DF9384E397E09F938F930E94160682E31E
:103BE00097E00E947D0580E297E00E947D05C2FB80
:103BF000882780F91F928F938DE197E09F938F9391
:103C00000E9416068BE197E00E947D0589E097E00F
:103C10000E947D05C3FB882780F91F928F9386E061
:103C200097E09F938F930E94160684E097E00E948E
:103C30007D058AEF96E00E947D05C4FB882780F908
:103C40001F928F9387EF96E09F938F930E941606A3
:103C500085EF96E00E947D0583EE96E00E947D054B
:103C6000C5FB882780F91F928F9380EE96E09F9383
:103C70008F930E9416068EED96E00E947D0582ECE1
:103C800096E00E947D05C6FB882780F91F928F93DE
:103C90008FEB96E09F938F930E9416068DB79EB789
:103CA00080960FB6F8949EBF0FBE8DBF8DEB96E049
:103CB0000E947D0585EB96E00E947D05C7FBCC2721
:103CC000C0F91F92CF9382EB96E09F938F930E944F
:103CD000160680EB96E00E947D050F900F900F90E6
:103CE0000F9081E06FC0803109F49EC080F48E3067
:103CF00009F096CE9091E901892F8B7F92FF846025
:103D00008093E90182FF8DC08CE498E081C0863108
:103D100009F49AC0893109F083CE83EE94E00E94C1
:103D20007D0587EA94E00E947D058DE694E00E947F
:103D30007D0589E494E00E947D058EE194E021C038
:103D40008A3249F190F4873211F128F48E3108F467
:103D500067CE8D511DC0893209F062CE8FE898E0A0
:103D60000E947D050E948906BCCF833468F48A33A3
:103D700008F0A1C0853359F0883309F051CE8DE0A9
:103D800095E00E947D05ADCF833409F049CE80E0F7
:103D90000E94DF1CA6CF8FEA98E00E947D050E945A
:103DA000831B9FCF8091E901807F8093E90182EF9F
:103DB00094E00E947D058BEA98E00E947D0581E0F9
:103DC0008093EB01DF91CF9108959091E901892FC4
:103DD0008E7F90FF81608093E90180FF03C083E8BC
:103DE00098E0CFCF86E798E00E947D058091E901B9
:103DF000817F8093E90175CF9091E901892F8D7FB3
:103E000091FF82608093E90181FF08C089E698E014
:103E10000E947D058091E9018160EBCF8BE598E000
:103E2000B0CF8CE398E0ADCF9091E901892F877FE7
:103E300093FF88608093E90183FF03C080E398E0EB
:103E4000E7CF83E298E09DCF80E194E00E947D057A
:103E50000E9449101F928F9386EF93E09F938F9358
:103E60000E941606809118011F928F938FED93E0A8
:103E70009F938F930E9416068091F8011F928F9353
:103E80008CEC93E09F938F930E9416060E946D1C0A
:103E90009F938F937F936F9385EB93E09F938F9383
:103EA0000E9416068DB79EB742960FB6F8949EBF35
:103EB0000FBE8DBF16CF89536BCF80E008950C9451
:103EC0005D1FCF93C82F8091EB01882331F08130A3
:103ED00099F01092EB0180E00DC00E941A1A823214
:103EE000D1F78C2F0E945D1F811119C08C2F0E9469
:103EF000FD1C8170CF9108950E941A1A823289F3B5
:103F00008C2F0E945F1F811119C0C431C9F050F479
:103F1000CB3061F08AEA93E00E947D0513C081E016
:103F200090E0E7CFC93261F0C833A1F782EF94E0A7
:103F30000E947D058CEA93E00E947D0581E0D9CF47
:103F40001092EB0180E0D5CF881F8827881F089545
:103F500091E0883F08F490E0892F0895982F907F92
:103F6000903BE9F040F49039D1F0903AC1F09038AC
:103F7000B1F080E00895903D19F020F4903CC9F72D
:103F800082E00895903E59F0903F99F7815F8F301D
:103F900080F7E82FF0E0EE5DFE4F8081089583E02A
:103FA00008950F93022F0F77242F2F776F70462FCE
:103FB000406BDC01ED91FC9163E070E009950F919D
:103FC00008950F93022F0F77242F2F776F70462FAE
:103FD0004069DC01ED91FC9163E070E009950F917F
:103FE00008950F93022F0F77242F2F776F70462F8E
:103FF0004068DC01ED91FC9163E070E009950F9160
:1040000008950F931F93411520E2520744F49A013B
:10401000305E4115504E2CF430E020E002C02FEF0E
:104020003FE38901000F012F001F110B11952F771E
:104030006F70462F406EDC01ED91FC9163E070E003
:1040400009951F910F910895FC0173836283089570
:10405000FC01758F648F0895CF93DF93EC011DA24F
:104060001FA21EA2BC01685D7F4F40EC88519F4F8C
:104070000E9437221B821A821D821C821F821E828E
:10408000198618861B861A861D861C861F861E8624
:10409000198A188A1B8A1A8A1D8A1C8A1F8A1E8AF4
:1040A000198E188E1B8E1A8E1D8E1C8E1F8E1E8EC4
:1040B00019A218A2DF91CF910895EF92FF920F936A
:1040C0001F93CF93DF93EA018A01060F111D8851D8
:1040D0009F4F7C01C017D10739F4DF91CF911F9119
:1040E0000F91FF90EF9008956991C7010E943E22C1
:1040F000F1CFFC01718360830895FC0171A360A37B
:104100000895AF92BF92CF92DF92EF92FF920F93FA
:104110001F93CF93DF9300D00F92CDB7DEB77C0112
:104120006B01142FB22EA02EDC0195968C919597E1
:104130008430A9F55A96ED91FC913097E9F1CB01C5
:10414000019763E070E00E944F2BCB01880F991F0D
:10415000860F971F4983BA820B834C2D481B9E0103
:104160002F5F3F4FBC01C7010995D7015E96ED91C6
:10417000FC91309731F00A2D2B2D412FB601C7014C
:1041800009950F900F900F90DF91CF911F910F9194
:10419000FF90EF90DF90CF90BF90AF900895623086
:1041A000710509F455C06330710599F061307105EE
:1041B00009F481C0D12CC12CD7015C96ED91FC9102
:1041C000309799F20A2D2B2D412FB601C701099581
:1041D000CCCF842F807F803A11F148F48038D1F021
:1041E000803951F7D7011496ED91FC910AC0803EB9
:1041F000D9F0803FF1F0803BF9F6D7011296ED91AE
:10420000FC913097C9F2123FE9F02A2D4B2D612F16
:104210006F701BC0D7011696ED91FC91F2CFD701BC
:104220001896ED91FC91EDCFD7011A96ED91FC9186
:10423000E8CF423F09F6D7011C96ED91FC913097EB
:1042400009F4BACF2A2D4B2D62EFC70109958DCF06
:10425000842F807F803DB1F0803FC9F0803C09F021
:10426000ABCFD7011E96ED91FC91309709F4A4CF06
:10427000812F8D7F4B2D612F6F70813F89F0C7019A
:10428000099573CFD7015096ED91FC91EECF433F46
:1042900051F4D7015296ED91FC91309709F48CCFEF
:1042A0004B2D612FECCF413F09F086CFD7015496BB
:1042B000ED91FC91F2CF842F0E94A81F882359F022
:1042C000D7015696ED91FC91309709F475CF612F87
:1042D000C70109954ACF163F09F06ECFD70158960E
:1042E000ED91FC91F1CFFF920F931F93CF93DF934A
:1042F000EC01162F862F0E94A81F882391F0FDA0A5
:1043000081E08DA300E020E0412F61E070E0CE016C
:104310000E948120FDA2DF91CF911F910F91FF900C
:104320000895812F0E94A41F4DA1882309F443C042
:10433000443029F01AA381E090E09FA38EA3812F3F
:104340000E94AE1F813051F08823A9F0823089F09D
:10435000833079F01DA21FA21EA2DDCF8DA300E045
:1043600020E0412F61E070E0CE010E9481201DA27B
:10437000D2CF8DA3D0CF103FB1F0173F59F72EA168
:104380003FA1C90163E070E00E944F2BFE01E80FDE
:10439000F91F12A3B9016F5F7F4F7FA36EA30CA11A
:1043A0002BA14AA1E1CF84E08DA31AA381E090E084
:1043B0009FA38EA3B0CF442309F4ADCF2EA13FA17C
:1043C000C90163E070E00E944F2BFE01E80FF91F66
:1043D00012A3B9016F5F7F4F7FA36EA38130910558
:1043E00069F0029709F097CF0CA12BA14AA1CE0149
:1043F0000E9481208DA18430C9F68DCF00E042302B
:1044000009F089CFF2CFCF92DF92EF92FF920F9314
:104410001F93CF93DF93EC01E8A1F9A1309709F046
:1044200009956E0188EEC80ED11CC6010E946D224E
:1044300010E000E0E82EF12C0E151F0548F0DF918A
:10444000CF911F910F91FF90EF90DF90CF90089543
:1044500060E0C6010E948122682FCE010E94732174
:1044600061E0C6010E9491220F5F1F4FE5CFFC0162
:104470004283748363831182108208951F93CF93C4
:10448000DF93EC01162F0E94A822482F298130E0EB
:10449000C90101966A8170E00E94632B5881581708
:1044A000190641F4842F0E94AB2280E0DF91CF9166
:1044B0001F9108958B819C81280F391FF90110836A
:1044C000898190E001966A8170E00E94632B898364
:1044D000842F0E94AB2281E0E9CFCF93DF93EC01E0
:1044E0000E94A82299812881921740F0C92FC21BEF
:1044F0000E94AB228C2FDF91CF910895CA819C0F2F
:10450000F5CFFC018081860F9927991F628170E0A9
:104510000E94632B23813481280F391FF901808188
:1045200008951F93CF93DF93EC01162F0E94A822CA
:10453000282F8881810F9927991F6A8170E00E9436
:10454000632B8883822FDF91CF911F910C94AB2234
:104550008FB7F89408958FBF0895089508950F9325
:104560001F93CF93DF9300D000D000D00F92CDB730
:10457000DEB78C01CE0101960E948A2581110BC005
:1045800027960FB6F894DEBF0FBECDBFDF91CF9157
:104590001F910F9108958A810E94AE1F9A819D8379
:1045A0009B819E839C819F8381110AC08981843075
:1045B00079F0873069F0863069F08530D9F681E08E
:1045C000AE014B5F5F4F682FC8010E945D20D2CFC4
:1045D00083E0F6CF82E0F4CFDF92EF92FF920F9369
:1045E0001F93CF93DF9300D000D0CDB7DEB77B0110
:1045F000142FD22E4A832B830C83842F0E94AE1F4C
:10460000811129C082E0E816F10401F183E0E81687
:10461000F10439F0EA94EF2869F485E0173F21F4BA
:1046200004C087E0073F09F084E08983CE0101964A
:104630000E9485250F900F900F900F90DF91CF91E2
:104640001F910F91FF90EF90DF90089587EFD812A0
:10465000EBCF86E0EACF12951F701983E7CF0E9457
:10466000FE0989E092E00E942C206CEE72E289E063
:1046700092E00E9479206FEA72E289E092E00E9463
:104680007D206DEA72E289E092E00E9428206EEAC5
:1046900072E289E092E00C9424209B014091FA029E
:1046A0004430C1F4FC0191819F709093E90050E087
:1046B00040E064E070E0C9010E94642681110BC0F3
:1046C0009091E80095FD07C09091E8009E77909347
:1046D000E800089582E008952091FA02243091F4D0
:1046E000FC0181818F708093E9009091F3008091AB
:1046F000F200892B49F08091E8008E778093E800E2
:104700000C94122882E0089580E00895FC018091C5
:10471000FA02843059F491819F709093E90080915E
:10472000E80080FF03C0CF010C946C2308959B0127
:104730004091FA02443011F080E00895FC01968126
:104740009F709093E9008091E80082FFF5CF8091FF
:10475000E80085FFF1CF50E040E064E070E0C9017F
:104760000E94B3268091E80085FD05C08091E80095
:104770008B778093E80081E008958091F701089598
:10478000089508959FB7F8941092EE019FBF9091FD
:10479000FA02943009F048C02091E9002F7030915E
:1047A000EC00932F917030FD90E8922B22E0209343
:1047B000E9002091EB0020FF34C02091EE0027FF9C
:1047C00030C02091EC01222321F02091E80025FF48
:1047D00028C01092EC0126E03091E80035FF14C0AB
:1047E0008093F1008091E80085FD27C08091E8006A
:1047F00080FFFCCF8091E8008E778093E8009F7067
:104800009093E90080E008953091FA02343049F441
:104810003091EB0035FD05C0215041F481E08093DB
:10482000EC019F709093E9008FEF0895EFE9FFE0AE
:104830003197F1F700C00000CFCF8FB7F89421E097
:104840002093EE018FBFDBCFCF93DF93EC0181E0AC
:104850008093E9008FEF9091E800815095FD06C0AC
:1048600095ED9A95F1F700008111F5CF8091E80060
:1048700085FF14C050E040E068E070E0CE010E9487
:1048800064268091E8008E778093E80088E0FE013E
:10489000AFEEB1E001900D928A95E1F7DF91CF91F3
:1048A0000895089580EF98E00E947D058091F902B7
:1048B000811109C00E9443280E94A0288091E20033
:1048C00084608093E20008958CEE98E00E947D055C
:1048D0001092F902089588EE98E00C947D0584EE1C
:1048E00098E00C947D0580EE98E00E947D050C9484
:1048F000291C2091ED012F5F822F62E30E94432B40
:10490000992319F02093ED0108951092ED01809103
:10491000EE018823F1F08091FA028430C1F4909185
:10492000E9009F702091EC00822F817020FD80E8CB
:10493000892B92E09093E9009091EB0090FF04C0E6
:104940009091EE0097FD08C08F708093E90010925F
:10495000EE0108951092F1009091E80095FDFACFD4
:104960009091E80090FFF0CF9091E8009E779093AF
:10497000E800EACF42E061EC81E00E94BF2742E21A
:1049800061EC82E00E94BF2742E361E883E00E947D
:10499000BF2742E361E884E00C94BF278091FC02CA
:1049A000833009F45FC030F48130C1F1823009F402
:1049B0009BC008958A3009F487C08B3009F46DC01C
:1049C000893009F04EC08091FB02813209F049C064
:1049D0008091FF0290910003892B09F042C08091E1
:1049E000E800877F8093E8008091E80082FF35C06F
:1049F0009091F3008091F200029729F48091F100E8
:104A00008B7F813021F48091F1008093F7018091B8
:104A1000E8008B778093E8000C94F3278091FB02E9
:104A2000813AF9F48091E800877F8093E8008091D3
:104A3000FF0290910003892B61F468E08FEE91E012
:104A400070E00E9402278091E8008B778093E80055
:104A5000089560E090E080E0F3CF8091FA02811148
:104A6000C3CF08958091FB02813AD9F78091FF026C
:104A700090910003892BA9F78091E800877F8093AC
:104A8000E8008091E80080FFFCCF809118018093BE
:104A9000F1008091E8008E77BDCF8091FB028132DA
:104AA00001F78091FF0290910003892BD1F680914C
:104AB000E800877F8093E8000E94F3278091FD0241
:104AC000809318010C9497148091FB02813249F66F
:104AD0008091E800877F8093E8000E94F32780910F
:104AE000FE028093F80108958091FB02813A09F05B
:104AF000B8CF8091E800877F8093E8008091E8003C
:104B000080FFFCCF8091F801C2CFBC0182E091E030
:104B10000C944D23BC0182E091E00C9497230E94F9
:104B20002F2384B7877F84BF0FB6F894A895809110
:104B30006000886180936000109260000FBE80E882
:104B400090E00FB6F89480936100909361000FBEDF
:104B50000E94DB100E9443280E94A0288091E2005E
:104B600084608093E20082EC93E20E94C91A7894F8
:104B70000E94282B0E94E5108EE091E00E944410D4
:104B80008FEC98E00E947D058091FA02853039F023
:104B90000E94151182E091E00E948623F5CF8BECF4
:104BA00098E00E947D050E94E11B8091F802882315
:104BB00059F30E94121C882339F30E944E26E4CF39
:104BC0000C94E225E92FFF27E330F105F1F060F4C2
:104BD000E130F10509F453C0329709F455C0F0E013
:104BE000E0E090E080E029C0E132F10509F438C04E
:104BF000E232F105A1F76115710509F44AC08EEEA4
:104C000099E061307105C9F0EACF992781309105AB
:104C1000C9F0009761F082309105D9F00397F9F659
:104C2000E4EFF8E0E491F0E084EF98E006C0E2E31E
:104C3000F9E0E491F0E082E399E0DA018D939C934E
:104C4000CF010895E2E1F9E0E491F0E082E199E03A
:104C5000F4CFEAEFF8E0E491F0E08AEF98E0EDCFEE
:104C6000E9E0F0E088E499E06115710531F3E9E0ED
:104C7000F0E081E699E061307105F9F2B0CFE2E150
:104C8000F0E08CED99E0D9CFE6EAF0E086E399E038
:104C9000D4CFE0E4F0E080E19AE0CFCF80E189BDBD
:104CA00082E189BD09B400FEFDCF8091D8008F7DDF
:104CB0008093D8008091E00082608093E000809132
:104CC000E00081FDFCCF0895AF92BF92CF92DF92BA
:104CD000FF920F931F93CF93DF936C01EB018A0137
:104CE0000E941228F82E811123C00115110539F0F8
:104CF000F80180819181C81BD90BC80ED91EB12C37
:104D0000A12C2097A9F08091E80085FD22C0809118
:104D1000E8008E778093E80001151105A1F0F801F5
:104D200080819181A80EB91EB182A08285E0F82E03
:104D30008F2DDF91CF911F910F91FF90DF90CF903A
:104D4000BF90AF9008950E9412288823D1F2F82EC8
:104D5000EFCFF60181916F018093F1002197FFEF72
:104D6000AF1ABF0ACECFAF92BF92CF92DF92FF921F
:104D70000F931F93CF93DF936C01EB018A010E9485
:104D80001228F82E811123C00115110539F0F80100
:104D900080819181C81BD90BC80ED91EB12CA12CC2
:104DA0002097A9F08091E80085FD22C08091E8005D
:104DB0008B778093E80001151105A1F0F80180813F
:104DC0009181A80EB91EB182A08285E0F82E8F2DA8
:104DD000DF91CF911F910F91FF90DF90CF90BF9007
:104DE000AF9008950E9412288823D1F2F82EEFCFB9
:104DF0008091F100F60181936F012197FFEFAF1AC7
:104E0000BF0ACECFFC018091010390910203861767
:104E10009707A0F06115710529F49091E8009E773D
:104E20009093E80090E06115710551F4911108C06C
:104E30008091E80082FF34C080E00895BC01F2CF89
:104E40008091FA028823C1F18530C1F18091E80098
:104E500083FD30C08091E80082FDEACF8091E800B8
:104E600080FFE1CF8091F3002091F200382F61158F
:104E7000710519F02830310558F091E028303105DE
:104E800009F090E02091E8002E772093E800CBCF46
:104E900081918093F100615071092F5F3F4FE7CFFF
:104EA0008091FA02882341F0853041F08091E8003A
:104EB00083FFBECF81E0089582E0089583E00895E6
:104EC000FC01809101039091020386179707A0F0DF
:104ED0006115710529F48091E8008E778093E800D0
:104EE00090E06115710551F4911108C08091E800BE
:104EF00082FF35C080E00895BC01F2CF8091FA02B4
:104F00008823C9F18530C9F18091E80083FD31C063
:104F10008091E80082FDEACF8091E80080FFE1CF38
:104F20008091F3002091F200382F6115710519F07E
:104F30002830310558F091E02830310509F090E033
:104F40008091E8008E778093E800CBCF84918093A6
:104F5000F1003196615071092F5F3F4FE6CF80918C
:104F6000FA02882341F0853041F08091E80083FF08
:104F7000BDCF81E0089582E0089583E00895982FE1
:104F8000973028F08F708093E90081E00895909326
:104F9000E900242F762F50E0981731F07091EC0043
:104FA0002091ED005091F00021FD02C09F5FE8CFFD
:104FB0003091EB003E7F3093EB003091ED003D7F70
:104FC0003093ED003091EB0031603093EB00709343
:104FD000EC002093ED005093F0002091EE0027FDAF
:104FE000E5CF80E008958091FB0287FF13C0809198
:104FF000E80082FF06C08091E8008B778093E8008C
:1050000004C08091FA028111F2CF08958091FA02D2
:105010008823D9F38091E80080FFF8CF8091E800E1
:105020008E77ECCF2091E4003091E50095E6A90160
:105030002091EC00822F817020FF06C08091E80053
:1050400080FF06C080E008952091E80022FD1AC08C
:105050008091FA02882389F0853089F08091EB00F5
:1050600085FD0FC02091E4003091E5004217530701
:10507000F9F29150E1F684E0089582E0089583E02A
:10508000089581E008950E94B1280E94B928E0EEB9
:10509000F0E0808181608083E8EDF0E080818F77AF
:1050A000808319BCA7EDB0E08C918E7F8C938081BA
:1050B0008F7E80831092F90208950F931F93CF93F0
:1050C000DF930E94B1280E94B928C8EDD0E0888102
:1050D0008F77888388818068888388818F7D8883A3
:1050E00019BC1092FA021092F6021092F802109275
:1050F000F70200EE10E0F80180818B7F80838881C9
:105100008160888342E060E080E00E94BF27E1EE9A
:10511000F0E080818E7F8083E2EEF0E0808181602C
:105120008083808188608083F80180818E7F808386
:10513000888180618883DF91CF911F910F910895BD
:10514000E8EDF0E080818F7E8083E7EDF0E0808104
:105150008160808384E082BF81E08093F9020C94B7
:105160005D28E8EDF0E080818E7F80831092E20080
:1051700008951092DA001092E10008951F920F92A4
:105180000FB60F9211242F933F934F935F936F931A
:105190007F938F939F93AF93BF93EF93FF938091F0
:1051A000E10082FF0BC08091E20082FF07C0809186
:1051B000E1008B7F8093E1000E9479248091DA00E6
:1051C00080FF19C08091D80080FF15C08091DA005F
:1051D0008E7F8093DA008091D90080FF96C080E1B5
:1051E00089BD82E189BD09B400FEFDCF81E08093D5
:1051F000FA020E9452248091E10080FF19C0809140
:10520000E20080FF15C08091E2008E7F8093E20073
:105210008091E20080618093E2008091D8008062FA
:105220008093D80019BC85E08093FA020E946F2415
:105230008091E10084FF2BC08091E20084FF27C0B1
:1052400080E189BD82E189BD89B5982F917080FF89
:10525000FBCF8091D8008F7D8093D8008091E100B2
:105260008F7E8093E1008091E2008F7E8093E20048
:105270008091E20081608093E2008091F6028823B1
:1052800009F449C084E08093FA020E94732480915B
:10529000E10083FF29C08091E20083FF25C0809157
:1052A000E100877F8093E10082E08093FA02109210
:1052B000F6028091E1008E7F8093E1008091E20010
:1052C0008E7F8093E2008091E20080618093E20013
:1052D00042E060E080E00E94BF278091F00088609B
:1052E0008093F0000E946B24FF91EF91BF91AF91EA
:1052F0009F918F917F916F915F914F913F912F91EE
:105300000F900FBE0F901F90189519BC1092FA02C3
:105310000E94642470CF8091E30087FD93E0909316
:10532000FA02B3CF1F920F920FB60F9211242F9350
:105330003F934F935F936F937F938F939F93AF931D
:10534000BF93CF93DF93EF93FF93D091E900DF708A
:105350008091EC00C82FC17080FDC0E81092E90078
:105360008091F000877F8093F00078940E94D62986
:105370001092E9008091F00088608093F000CD2BBE
:10538000CF70C093E900FF91EF91DF91CF91BF9172
:10539000AF919F918F917F916F915F914F913F91CD
:1053A0002F910F900FBE0F901F9018951F93CF93C2
:1053B000DF93CDB7DEB7AA970FB6F894DEBF0FBE66
:1053C000CDBF8BEF92E02091F100FC012193CF0142
:1053D000F3E083309F07B9F70E94CE248091E80064
:1053E00083FF1EC18091FB029091FC029A3008F06D
:1053F00017C1E92FF0E0E152F44D0C94772B80387F
:1054000099F0823809F00CC18091FF028F708730CB
:1054100008F006C18093E9008091EB0085FB8827A6
:1054200080F91092E90006C08091F7029091F8028D
:10543000911182609091E800977F9093E8008093AB
:10544000F1001092F1008091E8008E77E5C088238A
:1054500009F4D3C0823009F0E3C08091FD028111CC
:10546000D6C08091FF028F702FEF280F263008F0F2
:10547000D7C08093E9002091EB0020FFC8C0933093
:1054800031F48091EB0080628093EB00C0C090917A
:10549000EB0090619093EB0021E030E001C0220F1F
:1054A0008A95EAF72093EA001092EA008091EB00D7
:1054B0008860EACF8111B4C01091FD021F778091FE
:1054C000E3008078812B8093E3008091E800877F60
:1054D0008093E8000E94F3278091E80080FFFCCFD2
:1054E0008091E30080688093E30082E0111183E003
:1054F0008093FA0295C08058823008F091C0809164
:10550000FD029091FE028C3D23E09207A1F583E01D
:105510008A838AE289834FB7F894DE01139620E0EC
:105520003EE051E2E32FF0E050935700E49120FF7A
:1055300003C0E295EF703F5FEF708E2F90E0EA308E
:10554000C0F0C7968D939D932F5F243159F74FBFBD
:105550008091E800877F8093E8006AE270E0CE01E6
:1055600001960E9402278091E8008B778093E800E3
:1055700057C0C096E7CF6091FF0270910003AE0163
:105580004F5F5F4F0E94E025BC01892B09F448C0A2
:105590009091E800977F9093E80089819A810E941A
:1055A0006027E1CF8038E1F58091E800877F809324
:1055B000E8008091F6028093F10045CF811130C060
:1055C0009091FD02923060F58091E800877F809392
:1055D000E8009093F6020E94F3278091F602882358
:1055E00011F084E005C08091E30087FDFACF81E0EF
:1055F0008093FA020E94BA2413C08091FD02813088
:1056000079F481E0933009F080E08093F802109201
:10561000E9008091E800877F8093E8000E94F327EB
:105620008091E80083FF0AC08091E800877F809323
:10563000E8008091EB0080628093EB00AA960FB6A1
:10564000F894DEBF0FBECDBFDF91CF911F910895BB
:10565000CF938091FA028823A1F0C091E900CF7026
:105660009091EC00892F817090FD80E8C82B1092FA
:10567000E9008091E80083FD0E94D629CF70C09395
:10568000E900CF910895991B79E004C0991F9617FE
:1056900008F0961B881F7A95C9F780950895AA1B74
:1056A000BB1B51E107C0AA1FBB1FA617B70710F00D
:1056B000A61BB70B881F991F5A95A9F7809590953F
:1056C000BC01CD01089597FB072E16F4009407D076
:1056D00077FD09D00E944F2B07FC05D03EF4909532
:1056E00081959F4F0895709561957F4F0895EE0FB6
:1056F000FF1F0590F491E02D0994F999FECF92BD1A
:1057000081BDF89A992780B50895A8E1B0E042E0FC
:1057100050E00C94B12B262FF999FECF92BD81BD9C
:10572000F89A019700B4021639F01FBA20BD0FB6DF
:10573000F894FA9AF99A0FBE08950396272F0E94BB
:105740008C2B0E948B2B252F0E948C2B242F0C94AA
:105750008C2B0196272F0E948C2B0C948B2BDC0119
:10576000CB01FC01F999FECF06C0F2BDE1BDF89A6C
:10577000319600B40D9241505040B8F70895F89416
:10578000FFCF93129312EB12EB12C012C012C01291
:10579000C0123D13C913D813D8133414C012C01249
:1057A0003D14A614A614AF14AF14B114AF14AF1463
:1057B000AF14A614A614B614AF14AF14B614FF2970
:1057C000272A102B272A102B5A2A7B2A102BD22A61
:0257D000DE2ACF
:1057D200DE01038340000001044000000100BD23FC
:1057E2002424C023C123512401F5F69031336636B7
:1057F200F037020302000001000101010101000172
:025802000100A3
:00000001FF
